{
  "contractName": "PrayerCoin",
  "abi": [
    {
      "constant": true,
      "inputs": [],
      "name": "name",
      "outputs": [
        {
          "name": "",
          "type": "string"
        }
      ],
      "payable": false,
      "stateMutability": "view",
      "type": "function"
    },
    {
      "constant": false,
      "inputs": [
        {
          "name": "_spender",
          "type": "address"
        },
        {
          "name": "_value",
          "type": "uint256"
        }
      ],
      "name": "approve",
      "outputs": [
        {
          "name": "success",
          "type": "bool"
        }
      ],
      "payable": false,
      "stateMutability": "nonpayable",
      "type": "function"
    },
    {
      "constant": true,
      "inputs": [],
      "name": "PRAY_ETH_RATIO_BONUS1",
      "outputs": [
        {
          "name": "",
          "type": "uint256"
        }
      ],
      "payable": false,
      "stateMutability": "view",
      "type": "function"
    },
    {
      "constant": true,
      "inputs": [],
      "name": "totalSupply",
      "outputs": [
        {
          "name": "",
          "type": "uint256"
        }
      ],
      "payable": false,
      "stateMutability": "view",
      "type": "function"
    },
    {
      "constant": false,
      "inputs": [
        {
          "name": "_from",
          "type": "address"
        },
        {
          "name": "_to",
          "type": "address"
        },
        {
          "name": "_value",
          "type": "uint256"
        }
      ],
      "name": "transferFrom",
      "outputs": [
        {
          "name": "success",
          "type": "bool"
        }
      ],
      "payable": false,
      "stateMutability": "nonpayable",
      "type": "function"
    },
    {
      "constant": true,
      "inputs": [],
      "name": "decimals",
      "outputs": [
        {
          "name": "",
          "type": "uint8"
        }
      ],
      "payable": false,
      "stateMutability": "view",
      "type": "function"
    },
    {
      "constant": true,
      "inputs": [],
      "name": "version",
      "outputs": [
        {
          "name": "",
          "type": "string"
        }
      ],
      "payable": false,
      "stateMutability": "view",
      "type": "function"
    },
    {
      "constant": true,
      "inputs": [],
      "name": "publicSupply",
      "outputs": [
        {
          "name": "",
          "type": "uint256"
        }
      ],
      "payable": false,
      "stateMutability": "view",
      "type": "function"
    },
    {
      "constant": true,
      "inputs": [
        {
          "name": "_owner",
          "type": "address"
        }
      ],
      "name": "balanceOf",
      "outputs": [
        {
          "name": "balance",
          "type": "uint256"
        }
      ],
      "payable": false,
      "stateMutability": "view",
      "type": "function"
    },
    {
      "constant": true,
      "inputs": [],
      "name": "symbol",
      "outputs": [
        {
          "name": "",
          "type": "string"
        }
      ],
      "payable": false,
      "stateMutability": "view",
      "type": "function"
    },
    {
      "constant": true,
      "inputs": [],
      "name": "PRAY_ETH_RATIO",
      "outputs": [
        {
          "name": "",
          "type": "uint256"
        }
      ],
      "payable": false,
      "stateMutability": "view",
      "type": "function"
    },
    {
      "constant": false,
      "inputs": [
        {
          "name": "_to",
          "type": "address"
        },
        {
          "name": "_value",
          "type": "uint256"
        }
      ],
      "name": "transfer",
      "outputs": [
        {
          "name": "success",
          "type": "bool"
        }
      ],
      "payable": false,
      "stateMutability": "nonpayable",
      "type": "function"
    },
    {
      "constant": true,
      "inputs": [],
      "name": "god",
      "outputs": [
        {
          "name": "",
          "type": "address"
        }
      ],
      "payable": false,
      "stateMutability": "view",
      "type": "function"
    },
    {
      "constant": false,
      "inputs": [
        {
          "name": "_to",
          "type": "address"
        },
        {
          "name": "amt",
          "type": "uint256"
        },
        {
          "name": "prayRatio",
          "type": "uint256"
        }
      ],
      "name": "fiatSend",
      "outputs": [],
      "payable": false,
      "stateMutability": "nonpayable",
      "type": "function"
    },
    {
      "constant": false,
      "inputs": [
        {
          "name": "_spender",
          "type": "address"
        },
        {
          "name": "_value",
          "type": "uint256"
        },
        {
          "name": "_extraData",
          "type": "bytes"
        }
      ],
      "name": "approveAndCall",
      "outputs": [
        {
          "name": "success",
          "type": "bool"
        }
      ],
      "payable": false,
      "stateMutability": "nonpayable",
      "type": "function"
    },
    {
      "constant": true,
      "inputs": [
        {
          "name": "_owner",
          "type": "address"
        },
        {
          "name": "_spender",
          "type": "address"
        }
      ],
      "name": "allowance",
      "outputs": [
        {
          "name": "remaining",
          "type": "uint256"
        }
      ],
      "payable": false,
      "stateMutability": "view",
      "type": "function"
    },
    {
      "constant": true,
      "inputs": [],
      "name": "totalDonations",
      "outputs": [
        {
          "name": "",
          "type": "uint256"
        }
      ],
      "payable": false,
      "stateMutability": "view",
      "type": "function"
    },
    {
      "constant": false,
      "inputs": [],
      "name": "endDonations",
      "outputs": [],
      "payable": false,
      "stateMutability": "nonpayable",
      "type": "function"
    },
    {
      "constant": true,
      "inputs": [],
      "name": "PRAY_ETH_RATIO_BONUS2",
      "outputs": [
        {
          "name": "",
          "type": "uint256"
        }
      ],
      "payable": false,
      "stateMutability": "view",
      "type": "function"
    },
    {
      "constant": false,
      "inputs": [],
      "name": "startDonations",
      "outputs": [],
      "payable": false,
      "stateMutability": "nonpayable",
      "type": "function"
    },
    {
      "constant": true,
      "inputs": [],
      "name": "totalPrayers",
      "outputs": [
        {
          "name": "",
          "type": "uint256"
        }
      ],
      "payable": false,
      "stateMutability": "view",
      "type": "function"
    },
    {
      "constant": true,
      "inputs": [
        {
          "name": "_owner",
          "type": "address"
        }
      ],
      "name": "getBalance",
      "outputs": [
        {
          "name": "balance",
          "type": "uint256"
        }
      ],
      "payable": false,
      "stateMutability": "view",
      "type": "function"
    },
    {
      "inputs": [],
      "payable": false,
      "stateMutability": "nonpayable",
      "type": "constructor"
    },
    {
      "payable": true,
      "stateMutability": "payable",
      "type": "fallback"
    },
    {
      "anonymous": false,
      "inputs": [
        {
          "indexed": true,
          "name": "_from",
          "type": "address"
        },
        {
          "indexed": true,
          "name": "_to",
          "type": "address"
        },
        {
          "indexed": false,
          "name": "_value",
          "type": "uint256"
        }
      ],
      "name": "Transfer",
      "type": "event"
    },
    {
      "anonymous": false,
      "inputs": [
        {
          "indexed": true,
          "name": "_owner",
          "type": "address"
        },
        {
          "indexed": true,
          "name": "_spender",
          "type": "address"
        },
        {
          "indexed": false,
          "name": "_value",
          "type": "uint256"
        }
      ],
      "name": "Approval",
      "type": "event"
    }
  ],
  "bytecode": "0x606060405260408051908101604052600a81527f507261796572436f696e000000000000000000000000000000000000000000006020820152600490805161004b929160200190610168565b506005805460ff1916601217905560408051908101604052600481527f5052415900000000000000000000000000000000000000000000000000000000602082015260069080516100a0929160200190610168565b5060408051908101604052600481527f48312e3000000000000000000000000000000000000000000000000000000000602082015260079080516100e8929160200190610168565b506b02277428614a865b80680000600855611a0a600955611bc2600a55612b3a600b556000600c819055600d55600e805460ff19166001179055341561012d57600080fd5b60038054600160a060020a03191633600160a060020a0390811691909117918290556008549116600090815260016020526040902055610203565b828054600181600116156101000203166002900490600052602060002090601f016020900481019282601f106101a957805160ff19168380011785556101d6565b828001600101855582156101d6579182015b828111156101d65782518255916020019190600101906101bb565b506101e29291506101e6565b5090565b61020091905b808211156101e257600081556001016101ec565b90565b610c52806102126000396000f30060606040526004361061010e5763ffffffff60e060020a60003504166306fdde03811461024c578063095ea7b3146102d65780630d80b30b1461030c57806318160ddd1461033157806323b872dd14610344578063313ce5671461036c57806354fd4d50146103955780635e84d723146103a857806370a08231146103bb57806395d89b41146103da5780639a2ba542146103ed578063a9059cbb14610400578063ba56f6ee14610422578063c76d075414610451578063cae9ca5114610478578063dd62ed3e146104dd578063de2ed89314610502578063e9433ab614610515578063f01bc1c314610528578063f628e8e81461053b578063f780259e1461054e578063f8b2cb4f146103bb575b600e5460009060ff16151560011461012557600080fd5b34151561013157610249565b600354600160a060020a03163480156108fc0290604051600060405180830381858888f19350505050151561016557600080fd5b50600c805434019055600d546000906a0583b8b02231b86c68000090116101d157600d54698d2c09496426a668000090116101b557600b546101ae90349063ffffffff61056116565b90506101cc565b600a546101c990349063ffffffff61056116565b90505b6101e8565b6009546101e590349063ffffffff61056116565b90505b600d805482019055600160a060020a033381166000818152600160205260408082208054860190556003548416825290819020805485900390559091301690600080516020610c078339815191529084905190815260200160405180910390a35b50005b341561025757600080fd5b61025f610597565b60405160208082528190810183818151815260200191508051906020019080838360005b8381101561029b578082015183820152602001610283565b50505050905090810190601f1680156102c85780820380516001836020036101000a031916815260200191505b509250505060405180910390f35b34156102e157600080fd5b6102f8600160a060020a0360043516602435610635565b604051901515815260200160405180910390f35b341561031757600080fd5b61031f6106a1565b60405190815260200160405180910390f35b341561033c57600080fd5b61031f6106a7565b341561034f57600080fd5b6102f8600160a060020a03600435811690602435166044356106ad565b341561037757600080fd5b61037f6107a1565b60405160ff909116815260200160405180910390f35b34156103a057600080fd5b61025f6107aa565b34156103b357600080fd5b61031f610815565b34156103c657600080fd5b61031f600160a060020a036004351661081b565b34156103e557600080fd5b61025f610836565b34156103f857600080fd5b61031f6108a1565b341561040b57600080fd5b6102f8600160a060020a03600435166024356108a7565b341561042d57600080fd5b610435610929565b604051600160a060020a03909116815260200160405180910390f35b341561045c57600080fd5b610476600160a060020a0360043516602435604435610938565b005b341561048357600080fd5b6102f860048035600160a060020a03169060248035919060649060443590810190830135806020601f820181900481020160405190810160405281815292919060208401838380828437509496506109d895505050505050565b34156104e857600080fd5b61031f600160a060020a0360043581169060243516610b78565b341561050d57600080fd5b61031f610ba3565b341561052057600080fd5b610476610ba9565b341561053357600080fd5b61031f610bd0565b341561054657600080fd5b610476610bd6565b341561055957600080fd5b61031f610c00565b6000808315156105745760009150610590565b5082820282848281151561058457fe5b041461058c57fe5b8091505b5092915050565b60048054600181600116156101000203166002900480601f01602080910402602001604051908101604052809291908181526020018280546001816001161561010002031660029004801561062d5780601f106106025761010080835404028352916020019161062d565b820191906000526020600020905b81548152906001019060200180831161061057829003601f168201915b505050505081565b600160a060020a03338116600081815260026020908152604080832094871680845294909152808220859055909291907f8c5be1e5ebec7d5bd14f71427d1e84f3dd0314c0f7b2291e5b200ac8c7c3b9259085905190815260200160405180910390a350600192915050565b600a5481565b60005481565b600160a060020a0380841660008181526002602090815260408083203390951683529381528382205492825260019052918220548390108015906106f15750828110155b15156106fc57600080fd5b600160a060020a038085166000908152600160205260408082208054870190559187168152208054849003905560001981101561076157600160a060020a03808616600090815260026020908152604080832033909416835292905220805484900390555b83600160a060020a031685600160a060020a0316600080516020610c078339815191528560405190815260200160405180910390a3506001949350505050565b60055460ff1681565b60078054600181600116156101000203166002900480601f01602080910402602001604051908101604052809291908181526020018280546001816001161561010002031660029004801561062d5780601f106106025761010080835404028352916020019161062d565b60085481565b600160a060020a031660009081526001602052604090205490565b60068054600181600116156101000203166002900480601f01602080910402602001604051908101604052809291908181526020018280546001816001161561010002031660029004801561062d5780601f106106025761010080835404028352916020019161062d565b60095481565b600160a060020a033316600090815260016020526040812054829010156108cd57600080fd5b600160a060020a03338116600081815260016020526040808220805487900390559286168082529083902080548601905591600080516020610c078339815191529085905190815260200160405180910390a350600192915050565b600354600160a060020a031681565b60035460009033600160a060020a0390811691161461095657600080fd5b600c80548401905561096e838363ffffffff61056116565b600d805482019055600160a060020a03808616600081815260016020526040808220805486019055600354841682529081902080548590039055929350913090911690600080516020610c078339815191529084905190815260200160405180910390a350505050565b600160a060020a03338116600081815260026020908152604080832094881680845294909152808220869055909291907f8c5be1e5ebec7d5bd14f71427d1e84f3dd0314c0f7b2291e5b200ac8c7c3b9259086905190815260200160405180910390a383600160a060020a03166040517f72656365697665417070726f76616c28616464726573732c75696e743235362c81527f616464726573732c6279746573290000000000000000000000000000000000006020820152602e01604051809103902060e060020a9004338530866040518563ffffffff1660e060020a0281526004018085600160a060020a0316600160a060020a0316815260200184815260200183600160a060020a0316600160a060020a03168152602001828051906020019080838360005b83811015610b19578082015183820152602001610b01565b50505050905090810190601f168015610b465780820380516001836020036101000a031916815260200191505b5094505050505060006040518083038160008761646e5a03f1159250610b6e91505057600080fd5b5060019392505050565b600160a060020a03918216600090815260026020908152604080832093909416825291909152205490565b600c5481565b60035433600160a060020a03908116911614610bc457600080fd5b600e805460ff19169055565b600b5481565b60035433600160a060020a03908116911614610bf157600080fd5b600e805460ff19166001179055565b600d54815600ddf252ad1be2c89b69c2b068fc378daa952ba7f163c4a11628f55a4df523b3efa165627a7a7230582012d234d378f7eb4b2b11157b6eabd2e2663265ba99f1183e5d93c713b0aa7b810029",
  "source": "pragma solidity ^0.4.18;\n\nimport \"./PrayerCoinToken.sol\";\nimport \"./SafeMath.sol\";\n\ncontract Standard {\n    function balanceOf(address _owner) public constant returns (uint256);\n    function transfer(address _to, uint256 _value) public returns (bool);\n}\n\ncontract PrayerCoin is PrayerCoinToken {\n  using SafeMath for uint256;\n  address public god;\n\n  string public name = \"PrayerCoin\";\n  uint8 public decimals = 18;\n  string public symbol = \"PRAY\";\n  string public version = 'H1.0';  \n\n  uint256 public publicSupply = 666666666 ether;\n \n  uint public PRAY_ETH_RATIO = 6666;\n  uint public PRAY_ETH_RATIO_BONUS1 = 7106;\n  uint public PRAY_ETH_RATIO_BONUS2 = 11066;\n\n  uint256 public totalDonations = 0;\n  uint256 public totalPrayers = 0;\n\n  bool private acceptingDonations = true;\n  \n  modifier divine {\n    require(msg.sender == god);\n    _;\n  }\n\n  function PrayerCoin() public { // initialize contract\n    god = msg.sender;\n    balances[god] = publicSupply; // god holds all of the PRAY\n  } \n\n  function approveAndCall(address _spender, uint256 _value, bytes _extraData) public returns (bool success) {\n    allowed[msg.sender][_spender] = _value;\n    Approval(msg.sender, _spender, _value);\n\n    //call the receiveApproval function on the contract you want to be notified. This crafts the function signature manually so one doesn't have to include a contract in here just for this.\n    //receiveApproval(address _from, uint256 _value, address _tokenContract, bytes _extraData)\n    //it is assumed that when does this that the call *should* succeed, otherwise one would use vanilla approve instead.\n    require(false == _spender.call(bytes4(bytes32(keccak256(\"receiveApproval(address,uint256,address,bytes)\"))), msg.sender, _value, this, _extraData));\n    return true;\n  } \n\n  function startDonations() public divine {\n    acceptingDonations = true;\n  }\n\n  function endDonations() public divine {\n    acceptingDonations = false;\n  }\n\n  function fiatSend(address _to, uint256 amt, uint256 prayRatio) public divine {\n    totalDonations += amt;\n    uint256 prayersIssued = amt.mul(prayRatio);\n    totalPrayers += prayersIssued;\n    balances[_to] += prayersIssued;\n    balances[god] -= prayersIssued;\n\n    Transfer(address(this), _to, prayersIssued);\n  }\n\n  function() public payable {\n    require(acceptingDonations == true);\n    if (msg.value == 0) { return; }\n\n    god.transfer(msg.value);\n\n    totalDonations += msg.value;\n    \n    uint256 prayersIssued = 0;\n\n    if (totalPrayers <= (6666666 * 1 ether)) {\n        if (totalPrayers <= (666666 * 1 ether)) {\n            prayersIssued = msg.value.mul(PRAY_ETH_RATIO_BONUS2);\n        } else {\n            prayersIssued = msg.value.mul(PRAY_ETH_RATIO_BONUS1);\n        }\n    } else {\n        prayersIssued = msg.value.mul(PRAY_ETH_RATIO);\n    }\n\n    totalPrayers += prayersIssued;\n    balances[msg.sender] += prayersIssued;\n    balances[god] -= prayersIssued;\n\n    Transfer(address(this), msg.sender, prayersIssued);\n  }\n \n}\n",
  "sourcePath": "/Users/master/Projects/prayercoin/contracts/PrayerCoin.sol",
  "compiler": {
    "name": "solc",
    "version": "0.4.18+commit.9cf6e910.Emscripten.clang"
  },
  "schemaVersion": "1.0.1",
  "updatedAt": "2018-02-04T02:33:47.587Z"
}