{
  "contractName": "PrayerCoin",
  "abi": [
    {
      "constant": true,
      "inputs": [],
      "name": "name",
      "outputs": [
        {
          "name": "",
          "type": "string"
        }
      ],
      "payable": false,
      "stateMutability": "view",
      "type": "function"
    },
    {
      "constant": false,
      "inputs": [
        {
          "name": "_spender",
          "type": "address"
        },
        {
          "name": "_value",
          "type": "uint256"
        }
      ],
      "name": "approve",
      "outputs": [
        {
          "name": "success",
          "type": "bool"
        }
      ],
      "payable": false,
      "stateMutability": "nonpayable",
      "type": "function"
    },
    {
      "constant": true,
      "inputs": [],
      "name": "totalSupply",
      "outputs": [
        {
          "name": "",
          "type": "uint256"
        }
      ],
      "payable": false,
      "stateMutability": "view",
      "type": "function"
    },
    {
      "constant": false,
      "inputs": [
        {
          "name": "_from",
          "type": "address"
        },
        {
          "name": "_to",
          "type": "address"
        },
        {
          "name": "_value",
          "type": "uint256"
        }
      ],
      "name": "transferFrom",
      "outputs": [
        {
          "name": "success",
          "type": "bool"
        }
      ],
      "payable": false,
      "stateMutability": "nonpayable",
      "type": "function"
    },
    {
      "constant": true,
      "inputs": [],
      "name": "decimals",
      "outputs": [
        {
          "name": "",
          "type": "uint8"
        }
      ],
      "payable": false,
      "stateMutability": "view",
      "type": "function"
    },
    {
      "constant": true,
      "inputs": [],
      "name": "version",
      "outputs": [
        {
          "name": "",
          "type": "string"
        }
      ],
      "payable": false,
      "stateMutability": "view",
      "type": "function"
    },
    {
      "constant": true,
      "inputs": [],
      "name": "publicSupply",
      "outputs": [
        {
          "name": "",
          "type": "uint256"
        }
      ],
      "payable": false,
      "stateMutability": "view",
      "type": "function"
    },
    {
      "constant": true,
      "inputs": [
        {
          "name": "_owner",
          "type": "address"
        }
      ],
      "name": "balanceOf",
      "outputs": [
        {
          "name": "balance",
          "type": "uint256"
        }
      ],
      "payable": false,
      "stateMutability": "view",
      "type": "function"
    },
    {
      "constant": true,
      "inputs": [],
      "name": "symbol",
      "outputs": [
        {
          "name": "",
          "type": "string"
        }
      ],
      "payable": false,
      "stateMutability": "view",
      "type": "function"
    },
    {
      "constant": true,
      "inputs": [],
      "name": "PRAY_ETH_RATIO",
      "outputs": [
        {
          "name": "",
          "type": "uint256"
        }
      ],
      "payable": false,
      "stateMutability": "view",
      "type": "function"
    },
    {
      "constant": false,
      "inputs": [
        {
          "name": "_to",
          "type": "address"
        },
        {
          "name": "_value",
          "type": "uint256"
        }
      ],
      "name": "transfer",
      "outputs": [
        {
          "name": "success",
          "type": "bool"
        }
      ],
      "payable": false,
      "stateMutability": "nonpayable",
      "type": "function"
    },
    {
      "constant": true,
      "inputs": [],
      "name": "god",
      "outputs": [
        {
          "name": "",
          "type": "address"
        }
      ],
      "payable": false,
      "stateMutability": "view",
      "type": "function"
    },
    {
      "constant": false,
      "inputs": [
        {
          "name": "_spender",
          "type": "address"
        },
        {
          "name": "_value",
          "type": "uint256"
        },
        {
          "name": "_extraData",
          "type": "bytes"
        }
      ],
      "name": "approveAndCall",
      "outputs": [
        {
          "name": "success",
          "type": "bool"
        }
      ],
      "payable": false,
      "stateMutability": "nonpayable",
      "type": "function"
    },
    {
      "constant": true,
      "inputs": [
        {
          "name": "_owner",
          "type": "address"
        },
        {
          "name": "_spender",
          "type": "address"
        }
      ],
      "name": "allowance",
      "outputs": [
        {
          "name": "remaining",
          "type": "uint256"
        }
      ],
      "payable": false,
      "stateMutability": "view",
      "type": "function"
    },
    {
      "constant": true,
      "inputs": [],
      "name": "totalDonations",
      "outputs": [
        {
          "name": "",
          "type": "uint256"
        }
      ],
      "payable": false,
      "stateMutability": "view",
      "type": "function"
    },
    {
      "constant": false,
      "inputs": [],
      "name": "endDonations",
      "outputs": [],
      "payable": false,
      "stateMutability": "nonpayable",
      "type": "function"
    },
    {
      "constant": false,
      "inputs": [],
      "name": "startDonations",
      "outputs": [],
      "payable": false,
      "stateMutability": "nonpayable",
      "type": "function"
    },
    {
      "constant": true,
      "inputs": [],
      "name": "totalPrayers",
      "outputs": [
        {
          "name": "",
          "type": "uint256"
        }
      ],
      "payable": false,
      "stateMutability": "view",
      "type": "function"
    },
    {
      "inputs": [],
      "payable": false,
      "stateMutability": "nonpayable",
      "type": "constructor"
    },
    {
      "payable": true,
      "stateMutability": "payable",
      "type": "fallback"
    },
    {
      "anonymous": false,
      "inputs": [
        {
          "indexed": true,
          "name": "_from",
          "type": "address"
        },
        {
          "indexed": true,
          "name": "_to",
          "type": "address"
        },
        {
          "indexed": false,
          "name": "_value",
          "type": "uint256"
        }
      ],
      "name": "Transfer",
      "type": "event"
    },
    {
      "anonymous": false,
      "inputs": [
        {
          "indexed": true,
          "name": "_owner",
          "type": "address"
        },
        {
          "indexed": true,
          "name": "_spender",
          "type": "address"
        },
        {
          "indexed": false,
          "name": "_value",
          "type": "uint256"
        }
      ],
      "name": "Approval",
      "type": "event"
    }
  ],
  "bytecode": "0x60606040526040805190810160405280600a81526020017f507261796572436f696e000000000000000000000000000000000000000000008152506004908051906020019062000051929190620001fe565b506000600560006101000a81548160ff021916908360ff1602179055506040805190810160405280600481526020017f505241590000000000000000000000000000000000000000000000000000000081525060069080519060200190620000bb929190620001fe565b506040805190810160405280600481526020017f48312e30000000000000000000000000000000000000000000000000000000008152506007908051906020019062000109929190620001fe565b506327bc86aa600855670de0b6b3a76400006009556000600a556000600b556000600c60006101000a81548160ff02191690831515021790555034156200014f57600080fd5b33600360006101000a81548173ffffffffffffffffffffffffffffffffffffffff021916908373ffffffffffffffffffffffffffffffffffffffff16021790555060085460016000600360009054906101000a900473ffffffffffffffffffffffffffffffffffffffff1673ffffffffffffffffffffffffffffffffffffffff1673ffffffffffffffffffffffffffffffffffffffff16815260200190815260200160002081905550620002ad565b828054600181600116156101000203166002900490600052602060002090601f016020900481019282601f106200024157805160ff191683800117855562000272565b8280016001018555821562000272579182015b828111156200027157825182559160200191906001019062000254565b5b50905062000281919062000285565b5090565b620002aa91905b80821115620002a65760008160009055506001016200028c565b5090565b90565b6113c180620002bd6000396000f3006060604052600436106100fc576000357c0100000000000000000000000000000000000000000000000000000000900463ffffffff16806306fdde031461026d578063095ea7b3146102fb57806318160ddd1461035557806323b872dd1461037e578063313ce567146103f757806354fd4d50146104265780635e84d723146104b457806370a08231146104dd57806395d89b411461052a5780639a2ba542146105b8578063a9059cbb146105e1578063ba56f6ee1461063b578063cae9ca5114610690578063dd62ed3e1461072d578063de2ed89314610799578063e9433ab6146107c2578063f628e8e8146107d7578063f780259e146107ec575b600060011515600c60009054906101000a900460ff16151514151561012057600080fd5b600034141561012e5761026a565b600360009054906101000a900473ffffffffffffffffffffffffffffffffffffffff1673ffffffffffffffffffffffffffffffffffffffff166108fc349081150290604051600060405180830381858888f19350505050151561019057600080fd5b34600a600082825401925050819055506009543402905080600b6000828254019250508190555080600160003373ffffffffffffffffffffffffffffffffffffffff1673ffffffffffffffffffffffffffffffffffffffff168152602001908152602001600020600082825401925050819055503373ffffffffffffffffffffffffffffffffffffffff163073ffffffffffffffffffffffffffffffffffffffff167fddf252ad1be2c89b69c2b068fc378daa952ba7f163c4a11628f55a4df523b3ef836040518082815260200191505060405180910390a35b50005b341561027857600080fd5b610280610815565b6040518080602001828103825283818151815260200191508051906020019080838360005b838110156102c05780820151818401526020810190506102a5565b50505050905090810190601f1680156102ed5780820380516001836020036101000a031916815260200191505b509250505060405180910390f35b341561030657600080fd5b61033b600480803573ffffffffffffffffffffffffffffffffffffffff169060200190919080359060200190919050506108b3565b604051808215151515815260200191505060405180910390f35b341561036057600080fd5b6103686109a5565b6040518082815260200191505060405180910390f35b341561038957600080fd5b6103dd600480803573ffffffffffffffffffffffffffffffffffffffff1690602001909190803573ffffffffffffffffffffffffffffffffffffffff169060200190919080359060200190919050506109ab565b604051808215151515815260200191505060405180910390f35b341561040257600080fd5b61040a610c45565b604051808260ff1660ff16815260200191505060405180910390f35b341561043157600080fd5b610439610c58565b6040518080602001828103825283818151815260200191508051906020019080838360005b8381101561047957808201518184015260208101905061045e565b50505050905090810190601f1680156104a65780820380516001836020036101000a031916815260200191505b509250505060405180910390f35b34156104bf57600080fd5b6104c7610cf6565b6040518082815260200191505060405180910390f35b34156104e857600080fd5b610514600480803573ffffffffffffffffffffffffffffffffffffffff16906020019091905050610cfc565b6040518082815260200191505060405180910390f35b341561053557600080fd5b61053d610d45565b6040518080602001828103825283818151815260200191508051906020019080838360005b8381101561057d578082015181840152602081019050610562565b50505050905090810190601f1680156105aa5780820380516001836020036101000a031916815260200191505b509250505060405180910390f35b34156105c357600080fd5b6105cb610de3565b6040518082815260200191505060405180910390f35b34156105ec57600080fd5b610621600480803573ffffffffffffffffffffffffffffffffffffffff16906020019091908035906020019091905050610de9565b604051808215151515815260200191505060405180910390f35b341561064657600080fd5b61064e610f42565b604051808273ffffffffffffffffffffffffffffffffffffffff1673ffffffffffffffffffffffffffffffffffffffff16815260200191505060405180910390f35b341561069b57600080fd5b610713600480803573ffffffffffffffffffffffffffffffffffffffff1690602001909190803590602001909190803590602001908201803590602001908080601f01602080910402602001604051908101604052809392919081815260200183838082843782019150505050505091905050610f68565b604051808215151515815260200191505060405180910390f35b341561073857600080fd5b610783600480803573ffffffffffffffffffffffffffffffffffffffff1690602001909190803573ffffffffffffffffffffffffffffffffffffffff16906020019091905050611210565b6040518082815260200191505060405180910390f35b34156107a457600080fd5b6107ac611297565b6040518082815260200191505060405180910390f35b34156107cd57600080fd5b6107d561129d565b005b34156107e257600080fd5b6107ea611316565b005b34156107f757600080fd5b6107ff61138f565b6040518082815260200191505060405180910390f35b60048054600181600116156101000203166002900480601f0160208091040260200160405190810160405280929190818152602001828054600181600116156101000203166002900480156108ab5780601f10610880576101008083540402835291602001916108ab565b820191906000526020600020905b81548152906001019060200180831161088e57829003601f168201915b505050505081565b600081600260003373ffffffffffffffffffffffffffffffffffffffff1673ffffffffffffffffffffffffffffffffffffffff16815260200190815260200160002060008573ffffffffffffffffffffffffffffffffffffffff1673ffffffffffffffffffffffffffffffffffffffff168152602001908152602001600020819055508273ffffffffffffffffffffffffffffffffffffffff163373ffffffffffffffffffffffffffffffffffffffff167f8c5be1e5ebec7d5bd14f71427d1e84f3dd0314c0f7b2291e5b200ac8c7c3b925846040518082815260200191505060405180910390a36001905092915050565b60005481565b600080600260008673ffffffffffffffffffffffffffffffffffffffff1673ffffffffffffffffffffffffffffffffffffffff16815260200190815260200160002060003373ffffffffffffffffffffffffffffffffffffffff1673ffffffffffffffffffffffffffffffffffffffff16815260200190815260200160002054905082600160008773ffffffffffffffffffffffffffffffffffffffff1673ffffffffffffffffffffffffffffffffffffffff1681526020019081526020016000205410158015610a7c5750828110155b1515610a8757600080fd5b82600160008673ffffffffffffffffffffffffffffffffffffffff1673ffffffffffffffffffffffffffffffffffffffff1681526020019081526020016000206000828254019250508190555082600160008773ffffffffffffffffffffffffffffffffffffffff1673ffffffffffffffffffffffffffffffffffffffff168152602001908152602001600020600082825403925050819055507fffffffffffffffffffffffffffffffffffffffffffffffffffffffffffffffff811015610bd45782600260008773ffffffffffffffffffffffffffffffffffffffff1673ffffffffffffffffffffffffffffffffffffffff16815260200190815260200160002060003373ffffffffffffffffffffffffffffffffffffffff1673ffffffffffffffffffffffffffffffffffffffff168152602001908152602001600020600082825403925050819055505b8373ffffffffffffffffffffffffffffffffffffffff168573ffffffffffffffffffffffffffffffffffffffff167fddf252ad1be2c89b69c2b068fc378daa952ba7f163c4a11628f55a4df523b3ef856040518082815260200191505060405180910390a360019150509392505050565b600560009054906101000a900460ff1681565b60078054600181600116156101000203166002900480601f016020809104026020016040519081016040528092919081815260200182805460018160011615610100020316600290048015610cee5780601f10610cc357610100808354040283529160200191610cee565b820191906000526020600020905b815481529060010190602001808311610cd157829003601f168201915b505050505081565b60085481565b6000600160008373ffffffffffffffffffffffffffffffffffffffff1673ffffffffffffffffffffffffffffffffffffffff168152602001908152602001600020549050919050565b60068054600181600116156101000203166002900480601f016020809104026020016040519081016040528092919081815260200182805460018160011615610100020316600290048015610ddb5780601f10610db057610100808354040283529160200191610ddb565b820191906000526020600020905b815481529060010190602001808311610dbe57829003601f168201915b505050505081565b60095481565b600081600160003373ffffffffffffffffffffffffffffffffffffffff1673ffffffffffffffffffffffffffffffffffffffff1681526020019081526020016000205410151515610e3957600080fd5b81600160003373ffffffffffffffffffffffffffffffffffffffff1673ffffffffffffffffffffffffffffffffffffffff1681526020019081526020016000206000828254039250508190555081600160008573ffffffffffffffffffffffffffffffffffffffff1673ffffffffffffffffffffffffffffffffffffffff168152602001908152602001600020600082825401925050819055508273ffffffffffffffffffffffffffffffffffffffff163373ffffffffffffffffffffffffffffffffffffffff167fddf252ad1be2c89b69c2b068fc378daa952ba7f163c4a11628f55a4df523b3ef846040518082815260200191505060405180910390a36001905092915050565b600360009054906101000a900473ffffffffffffffffffffffffffffffffffffffff1681565b600082600260003373ffffffffffffffffffffffffffffffffffffffff1673ffffffffffffffffffffffffffffffffffffffff16815260200190815260200160002060008673ffffffffffffffffffffffffffffffffffffffff1673ffffffffffffffffffffffffffffffffffffffff168152602001908152602001600020819055508373ffffffffffffffffffffffffffffffffffffffff163373ffffffffffffffffffffffffffffffffffffffff167f8c5be1e5ebec7d5bd14f71427d1e84f3dd0314c0f7b2291e5b200ac8c7c3b925856040518082815260200191505060405180910390a38373ffffffffffffffffffffffffffffffffffffffff1660405180807f72656365697665417070726f76616c28616464726573732c75696e743235362c81526020017f616464726573732c627974657329000000000000000000000000000000000000815250602e01905060405180910390207c01000000000000000000000000000000000000000000000000000000009004338530866040518563ffffffff167c0100000000000000000000000000000000000000000000000000000000028152600401808573ffffffffffffffffffffffffffffffffffffffff1673ffffffffffffffffffffffffffffffffffffffff1681526020018481526020018373ffffffffffffffffffffffffffffffffffffffff1673ffffffffffffffffffffffffffffffffffffffff168152602001828051906020019080838360005b838110156111a957808201518184015260208101905061118e565b50505050905090810190601f1680156111d65780820380516001836020036101000a031916815260200191505b5094505050505060006040518083038160008761646e5a03f19250505015156000151514151561120557600080fd5b600190509392505050565b6000600260008473ffffffffffffffffffffffffffffffffffffffff1673ffffffffffffffffffffffffffffffffffffffff16815260200190815260200160002060008373ffffffffffffffffffffffffffffffffffffffff1673ffffffffffffffffffffffffffffffffffffffff16815260200190815260200160002054905092915050565b600a5481565b600360009054906101000a900473ffffffffffffffffffffffffffffffffffffffff1673ffffffffffffffffffffffffffffffffffffffff163373ffffffffffffffffffffffffffffffffffffffff161415156112f957600080fd5b6000600c60006101000a81548160ff021916908315150217905550565b600360009054906101000a900473ffffffffffffffffffffffffffffffffffffffff1673ffffffffffffffffffffffffffffffffffffffff163373ffffffffffffffffffffffffffffffffffffffff1614151561137257600080fd5b6001600c60006101000a81548160ff021916908315150217905550565b600b54815600a165627a7a72305820661620fe9f77324da9f9e3674a609dbd0c9e714653300b4b4d054b61702e34dc0029",
  "source": "pragma solidity ^0.4.8;\n\nimport \"./PrayerCoinToken.sol\";\n\ncontract Standard {\n    function balanceOf(address _owner) public constant returns (uint256);\n    function transfer(address _to, uint256 _value) public returns (bool);\n}\n\ncontract PrayerCoin is PrayerCoinToken {\n  address public god;\n\n  string public name = \"PrayerCoin\";\n  uint8 public decimals = 0;\n  string public symbol = \"PRAY\";\n  string public version = 'H1.0';  \n\n  uint256 public publicSupply = 666666666;\n \n  uint public PRAY_ETH_RATIO = 1000 finney;\n\n  uint256 public totalDonations = 0;\n  uint256 public totalPrayers = 0;\n\n  bool private acceptingDonations = false;\n  \n  modifier divine {\n    require(msg.sender == god);\n    _;\n  }\n\n  function PrayerCoin() public { // initialize contract\n    god = msg.sender;\n    balances[god] = publicSupply; // god holds all of the PRAY\n  } \n\n  function approveAndCall(address _spender, uint256 _value, bytes _extraData) public returns (bool success) {\n    allowed[msg.sender][_spender] = _value;\n    Approval(msg.sender, _spender, _value);\n\n    //call the receiveApproval function on the contract you want to be notified. This crafts the function signature manually so one doesn't have to include a contract in here just for this.\n    //receiveApproval(address _from, uint256 _value, address _tokenContract, bytes _extraData)\n    //it is assumed that when does this that the call *should* succeed, otherwise one would use vanilla approve instead.\n    require(false == _spender.call(bytes4(bytes32(keccak256(\"receiveApproval(address,uint256,address,bytes)\"))), msg.sender, _value, this, _extraData));\n    return true;\n  } \n\n  function startDonations() public divine {\n    acceptingDonations = true;\n  }\n\n  function endDonations() public divine {\n    acceptingDonations = false;\n  }\n\n  function() public payable {\n    require(acceptingDonations == true);\n    if (msg.value == 0) { return; }\n\n    god.transfer(msg.value);\n    totalDonations += msg.value;\n\n    uint256 prayersIssued = (msg.value * PRAY_ETH_RATIO);\n\n    totalPrayers+= prayersIssued;\n    balances[msg.sender] += prayersIssued;\n\n    Transfer(address(this), msg.sender, prayersIssued);\n  }\n \n}\n",
  "sourcePath": "/Users/master/Projects/prayercoin/contracts/PrayerCoin.sol",
  "compiler": {
    "name": "solc",
    "version": "0.4.18+commit.9cf6e910.Emscripten.clang"
  },
  "schemaVersion": "1.0.1",
  "updatedAt": "2018-01-16T05:49:03.656Z"
}