{
  "contractName": "PrayerCoin",
  "abi": [
    {
      "constant": true,
      "inputs": [],
      "name": "name",
      "outputs": [
        {
          "name": "",
          "type": "string"
        }
      ],
      "payable": false,
      "stateMutability": "view",
      "type": "function"
    },
    {
      "constant": false,
      "inputs": [
        {
          "name": "_spender",
          "type": "address"
        },
        {
          "name": "_value",
          "type": "uint256"
        }
      ],
      "name": "approve",
      "outputs": [
        {
          "name": "success",
          "type": "bool"
        }
      ],
      "payable": false,
      "stateMutability": "nonpayable",
      "type": "function"
    },
    {
      "constant": true,
      "inputs": [],
      "name": "PRAY_ETH_RATIO_BONUS1",
      "outputs": [
        {
          "name": "",
          "type": "uint256"
        }
      ],
      "payable": false,
      "stateMutability": "view",
      "type": "function"
    },
    {
      "constant": true,
      "inputs": [],
      "name": "totalSupply",
      "outputs": [
        {
          "name": "",
          "type": "uint256"
        }
      ],
      "payable": false,
      "stateMutability": "view",
      "type": "function"
    },
    {
      "constant": false,
      "inputs": [
        {
          "name": "_from",
          "type": "address"
        },
        {
          "name": "_to",
          "type": "address"
        },
        {
          "name": "_value",
          "type": "uint256"
        }
      ],
      "name": "transferFrom",
      "outputs": [
        {
          "name": "success",
          "type": "bool"
        }
      ],
      "payable": false,
      "stateMutability": "nonpayable",
      "type": "function"
    },
    {
      "constant": true,
      "inputs": [],
      "name": "decimals",
      "outputs": [
        {
          "name": "",
          "type": "uint8"
        }
      ],
      "payable": false,
      "stateMutability": "view",
      "type": "function"
    },
    {
      "constant": true,
      "inputs": [],
      "name": "version",
      "outputs": [
        {
          "name": "",
          "type": "string"
        }
      ],
      "payable": false,
      "stateMutability": "view",
      "type": "function"
    },
    {
      "constant": true,
      "inputs": [],
      "name": "publicSupply",
      "outputs": [
        {
          "name": "",
          "type": "uint256"
        }
      ],
      "payable": false,
      "stateMutability": "view",
      "type": "function"
    },
    {
      "constant": true,
      "inputs": [
        {
          "name": "_owner",
          "type": "address"
        }
      ],
      "name": "balanceOf",
      "outputs": [
        {
          "name": "balance",
          "type": "uint256"
        }
      ],
      "payable": false,
      "stateMutability": "view",
      "type": "function"
    },
    {
      "constant": true,
      "inputs": [],
      "name": "symbol",
      "outputs": [
        {
          "name": "",
          "type": "string"
        }
      ],
      "payable": false,
      "stateMutability": "view",
      "type": "function"
    },
    {
      "constant": true,
      "inputs": [],
      "name": "PRAY_ETH_RATIO",
      "outputs": [
        {
          "name": "",
          "type": "uint256"
        }
      ],
      "payable": false,
      "stateMutability": "view",
      "type": "function"
    },
    {
      "constant": false,
      "inputs": [
        {
          "name": "_to",
          "type": "address"
        },
        {
          "name": "_value",
          "type": "uint256"
        }
      ],
      "name": "transfer",
      "outputs": [
        {
          "name": "success",
          "type": "bool"
        }
      ],
      "payable": false,
      "stateMutability": "nonpayable",
      "type": "function"
    },
    {
      "constant": true,
      "inputs": [],
      "name": "god",
      "outputs": [
        {
          "name": "",
          "type": "address"
        }
      ],
      "payable": false,
      "stateMutability": "view",
      "type": "function"
    },
    {
      "constant": false,
      "inputs": [
        {
          "name": "_to",
          "type": "address"
        },
        {
          "name": "amt",
          "type": "uint256"
        },
        {
          "name": "prayRatio",
          "type": "uint256"
        }
      ],
      "name": "fiatSend",
      "outputs": [],
      "payable": false,
      "stateMutability": "nonpayable",
      "type": "function"
    },
    {
      "constant": false,
      "inputs": [
        {
          "name": "_spender",
          "type": "address"
        },
        {
          "name": "_value",
          "type": "uint256"
        },
        {
          "name": "_extraData",
          "type": "bytes"
        }
      ],
      "name": "approveAndCall",
      "outputs": [
        {
          "name": "success",
          "type": "bool"
        }
      ],
      "payable": false,
      "stateMutability": "nonpayable",
      "type": "function"
    },
    {
      "constant": true,
      "inputs": [
        {
          "name": "_owner",
          "type": "address"
        },
        {
          "name": "_spender",
          "type": "address"
        }
      ],
      "name": "allowance",
      "outputs": [
        {
          "name": "remaining",
          "type": "uint256"
        }
      ],
      "payable": false,
      "stateMutability": "view",
      "type": "function"
    },
    {
      "constant": true,
      "inputs": [],
      "name": "totalDonations",
      "outputs": [
        {
          "name": "",
          "type": "uint256"
        }
      ],
      "payable": false,
      "stateMutability": "view",
      "type": "function"
    },
    {
      "constant": false,
      "inputs": [],
      "name": "endDonations",
      "outputs": [],
      "payable": false,
      "stateMutability": "nonpayable",
      "type": "function"
    },
    {
      "constant": true,
      "inputs": [],
      "name": "PRAY_ETH_RATIO_BONUS2",
      "outputs": [
        {
          "name": "",
          "type": "uint256"
        }
      ],
      "payable": false,
      "stateMutability": "view",
      "type": "function"
    },
    {
      "constant": false,
      "inputs": [],
      "name": "startDonations",
      "outputs": [],
      "payable": false,
      "stateMutability": "nonpayable",
      "type": "function"
    },
    {
      "constant": true,
      "inputs": [],
      "name": "totalPrayers",
      "outputs": [
        {
          "name": "",
          "type": "uint256"
        }
      ],
      "payable": false,
      "stateMutability": "view",
      "type": "function"
    },
    {
      "constant": true,
      "inputs": [
        {
          "name": "_owner",
          "type": "address"
        }
      ],
      "name": "getBalance",
      "outputs": [
        {
          "name": "balance",
          "type": "uint256"
        }
      ],
      "payable": false,
      "stateMutability": "view",
      "type": "function"
    },
    {
      "inputs": [],
      "payable": false,
      "stateMutability": "nonpayable",
      "type": "constructor"
    },
    {
      "payable": true,
      "stateMutability": "payable",
      "type": "fallback"
    },
    {
      "anonymous": false,
      "inputs": [
        {
          "indexed": true,
          "name": "_from",
          "type": "address"
        },
        {
          "indexed": true,
          "name": "_to",
          "type": "address"
        },
        {
          "indexed": false,
          "name": "_value",
          "type": "uint256"
        }
      ],
      "name": "Transfer",
      "type": "event"
    },
    {
      "anonymous": false,
      "inputs": [
        {
          "indexed": true,
          "name": "_owner",
          "type": "address"
        },
        {
          "indexed": true,
          "name": "_spender",
          "type": "address"
        },
        {
          "indexed": false,
          "name": "_value",
          "type": "uint256"
        }
      ],
      "name": "Approval",
      "type": "event"
    }
  ],
  "bytecode": "0x60606040526040805190810160405280600a81526020017f507261796572436f696e00000000000000000000000000000000000000000000815250600490805190602001906200005192919062000204565b506012600560006101000a81548160ff021916908360ff1602179055506040805190810160405280600481526020017f505241590000000000000000000000000000000000000000000000000000000081525060069080519060200190620000bb92919062000204565b506040805190810160405280600481526020017f48312e3000000000000000000000000000000000000000000000000000000000815250600790805190602001906200010992919062000204565b506327bc86aa600855611a0a600955611bc2600a55612b3a600b556000600c556000600d556001600e60006101000a81548160ff02191690831515021790555034156200015557600080fd5b33600360006101000a81548173ffffffffffffffffffffffffffffffffffffffff021916908373ffffffffffffffffffffffffffffffffffffffff16021790555060085460016000600360009054906101000a900473ffffffffffffffffffffffffffffffffffffffff1673ffffffffffffffffffffffffffffffffffffffff1673ffffffffffffffffffffffffffffffffffffffff16815260200190815260200160002081905550620002b3565b828054600181600116156101000203166002900490600052602060002090601f016020900481019282601f106200024757805160ff191683800117855562000278565b8280016001018555821562000278579182015b82811115620002775782518255916020019190600101906200025a565b5b5090506200028791906200028b565b5090565b620002b091905b80821115620002ac57600081600090555060010162000292565b5090565b90565b61172b80620002c36000396000f300606060405260043610610128576000357c0100000000000000000000000000000000000000000000000000000000900463ffffffff16806306fdde0314610312578063095ea7b3146103a05780630d80b30b146103fa57806318160ddd1461042357806323b872dd1461044c578063313ce567146104c557806354fd4d50146104f45780635e84d7231461058257806370a08231146105ab57806395d89b41146105f85780639a2ba54214610686578063a9059cbb146106af578063ba56f6ee14610709578063c76d07541461075e578063cae9ca51146107a9578063dd62ed3e14610846578063de2ed893146108b2578063e9433ab6146108db578063f01bc1c3146108f0578063f628e8e814610919578063f780259e1461092e578063f8b2cb4f14610957575b600060011515600e60009054906101000a900460ff16151514151561014c57600080fd5b600034141561015a5761030f565b600360009054906101000a900473ffffffffffffffffffffffffffffffffffffffff1673ffffffffffffffffffffffffffffffffffffffff166108fc349081150290604051600060405180830381858888f1935050505015156101bc57600080fd5b34600c60008282540192505081905550600090506a0583b8b02231b86c680000600d5411151561023457698d2c09496426a6680000600d5411151561021757610210600b54346109a490919063ffffffff16565b905061022f565b61022c600a54346109a490919063ffffffff16565b90505b61024c565b610249600954346109a490919063ffffffff16565b90505b80600d6000828254019250508190555080600160003373ffffffffffffffffffffffffffffffffffffffff1673ffffffffffffffffffffffffffffffffffffffff168152602001908152602001600020600082825401925050819055503373ffffffffffffffffffffffffffffffffffffffff163073ffffffffffffffffffffffffffffffffffffffff167fddf252ad1be2c89b69c2b068fc378daa952ba7f163c4a11628f55a4df523b3ef836040518082815260200191505060405180910390a35b50005b341561031d57600080fd5b6103256109df565b6040518080602001828103825283818151815260200191508051906020019080838360005b8381101561036557808201518184015260208101905061034a565b50505050905090810190601f1680156103925780820380516001836020036101000a031916815260200191505b509250505060405180910390f35b34156103ab57600080fd5b6103e0600480803573ffffffffffffffffffffffffffffffffffffffff16906020019091908035906020019091905050610a7d565b604051808215151515815260200191505060405180910390f35b341561040557600080fd5b61040d610b6f565b6040518082815260200191505060405180910390f35b341561042e57600080fd5b610436610b75565b6040518082815260200191505060405180910390f35b341561045757600080fd5b6104ab600480803573ffffffffffffffffffffffffffffffffffffffff1690602001909190803573ffffffffffffffffffffffffffffffffffffffff16906020019091908035906020019091905050610b7b565b604051808215151515815260200191505060405180910390f35b34156104d057600080fd5b6104d8610e15565b604051808260ff1660ff16815260200191505060405180910390f35b34156104ff57600080fd5b610507610e28565b6040518080602001828103825283818151815260200191508051906020019080838360005b8381101561054757808201518184015260208101905061052c565b50505050905090810190601f1680156105745780820380516001836020036101000a031916815260200191505b509250505060405180910390f35b341561058d57600080fd5b610595610ec6565b6040518082815260200191505060405180910390f35b34156105b657600080fd5b6105e2600480803573ffffffffffffffffffffffffffffffffffffffff16906020019091905050610ecc565b6040518082815260200191505060405180910390f35b341561060357600080fd5b61060b610f15565b6040518080602001828103825283818151815260200191508051906020019080838360005b8381101561064b578082015181840152602081019050610630565b50505050905090810190601f1680156106785780820380516001836020036101000a031916815260200191505b509250505060405180910390f35b341561069157600080fd5b610699610fb3565b6040518082815260200191505060405180910390f35b34156106ba57600080fd5b6106ef600480803573ffffffffffffffffffffffffffffffffffffffff16906020019091908035906020019091905050610fb9565b604051808215151515815260200191505060405180910390f35b341561071457600080fd5b61071c611112565b604051808273ffffffffffffffffffffffffffffffffffffffff1673ffffffffffffffffffffffffffffffffffffffff16815260200191505060405180910390f35b341561076957600080fd5b6107a7600480803573ffffffffffffffffffffffffffffffffffffffff16906020019091908035906020019091908035906020019091905050611138565b005b34156107b457600080fd5b61082c600480803573ffffffffffffffffffffffffffffffffffffffff1690602001909190803590602001909190803590602001908201803590602001908080601f01602080910402602001604051908101604052809392919081815260200183838082843782019150505050505091905050611283565b604051808215151515815260200191505060405180910390f35b341561085157600080fd5b61089c600480803573ffffffffffffffffffffffffffffffffffffffff1690602001909190803573ffffffffffffffffffffffffffffffffffffffff1690602001909190505061152b565b6040518082815260200191505060405180910390f35b34156108bd57600080fd5b6108c56115b2565b6040518082815260200191505060405180910390f35b34156108e657600080fd5b6108ee6115b8565b005b34156108fb57600080fd5b610903611631565b6040518082815260200191505060405180910390f35b341561092457600080fd5b61092c611637565b005b341561093957600080fd5b6109416116b0565b6040518082815260200191505060405180910390f35b341561096257600080fd5b61098e600480803573ffffffffffffffffffffffffffffffffffffffff169060200190919050506116b6565b6040518082815260200191505060405180910390f35b60008060008414156109b957600091506109d8565b82840290508284828115156109ca57fe5b041415156109d457fe5b8091505b5092915050565b60048054600181600116156101000203166002900480601f016020809104026020016040519081016040528092919081815260200182805460018160011615610100020316600290048015610a755780601f10610a4a57610100808354040283529160200191610a75565b820191906000526020600020905b815481529060010190602001808311610a5857829003601f168201915b505050505081565b600081600260003373ffffffffffffffffffffffffffffffffffffffff1673ffffffffffffffffffffffffffffffffffffffff16815260200190815260200160002060008573ffffffffffffffffffffffffffffffffffffffff1673ffffffffffffffffffffffffffffffffffffffff168152602001908152602001600020819055508273ffffffffffffffffffffffffffffffffffffffff163373ffffffffffffffffffffffffffffffffffffffff167f8c5be1e5ebec7d5bd14f71427d1e84f3dd0314c0f7b2291e5b200ac8c7c3b925846040518082815260200191505060405180910390a36001905092915050565b600a5481565b60005481565b600080600260008673ffffffffffffffffffffffffffffffffffffffff1673ffffffffffffffffffffffffffffffffffffffff16815260200190815260200160002060003373ffffffffffffffffffffffffffffffffffffffff1673ffffffffffffffffffffffffffffffffffffffff16815260200190815260200160002054905082600160008773ffffffffffffffffffffffffffffffffffffffff1673ffffffffffffffffffffffffffffffffffffffff1681526020019081526020016000205410158015610c4c5750828110155b1515610c5757600080fd5b82600160008673ffffffffffffffffffffffffffffffffffffffff1673ffffffffffffffffffffffffffffffffffffffff1681526020019081526020016000206000828254019250508190555082600160008773ffffffffffffffffffffffffffffffffffffffff1673ffffffffffffffffffffffffffffffffffffffff168152602001908152602001600020600082825403925050819055507fffffffffffffffffffffffffffffffffffffffffffffffffffffffffffffffff811015610da45782600260008773ffffffffffffffffffffffffffffffffffffffff1673ffffffffffffffffffffffffffffffffffffffff16815260200190815260200160002060003373ffffffffffffffffffffffffffffffffffffffff1673ffffffffffffffffffffffffffffffffffffffff168152602001908152602001600020600082825403925050819055505b8373ffffffffffffffffffffffffffffffffffffffff168573ffffffffffffffffffffffffffffffffffffffff167fddf252ad1be2c89b69c2b068fc378daa952ba7f163c4a11628f55a4df523b3ef856040518082815260200191505060405180910390a360019150509392505050565b600560009054906101000a900460ff1681565b60078054600181600116156101000203166002900480601f016020809104026020016040519081016040528092919081815260200182805460018160011615610100020316600290048015610ebe5780601f10610e9357610100808354040283529160200191610ebe565b820191906000526020600020905b815481529060010190602001808311610ea157829003601f168201915b505050505081565b60085481565b6000600160008373ffffffffffffffffffffffffffffffffffffffff1673ffffffffffffffffffffffffffffffffffffffff168152602001908152602001600020549050919050565b60068054600181600116156101000203166002900480601f016020809104026020016040519081016040528092919081815260200182805460018160011615610100020316600290048015610fab5780601f10610f8057610100808354040283529160200191610fab565b820191906000526020600020905b815481529060010190602001808311610f8e57829003601f168201915b505050505081565b60095481565b600081600160003373ffffffffffffffffffffffffffffffffffffffff1673ffffffffffffffffffffffffffffffffffffffff168152602001908152602001600020541015151561100957600080fd5b81600160003373ffffffffffffffffffffffffffffffffffffffff1673ffffffffffffffffffffffffffffffffffffffff1681526020019081526020016000206000828254039250508190555081600160008573ffffffffffffffffffffffffffffffffffffffff1673ffffffffffffffffffffffffffffffffffffffff168152602001908152602001600020600082825401925050819055508273ffffffffffffffffffffffffffffffffffffffff163373ffffffffffffffffffffffffffffffffffffffff167fddf252ad1be2c89b69c2b068fc378daa952ba7f163c4a11628f55a4df523b3ef846040518082815260200191505060405180910390a36001905092915050565b600360009054906101000a900473ffffffffffffffffffffffffffffffffffffffff1681565b6000600360009054906101000a900473ffffffffffffffffffffffffffffffffffffffff1673ffffffffffffffffffffffffffffffffffffffff163373ffffffffffffffffffffffffffffffffffffffff1614151561119657600080fd5b82600c600082825401925050819055506111b982846109a490919063ffffffff16565b905080600d6000828254019250508190555080600160008673ffffffffffffffffffffffffffffffffffffffff1673ffffffffffffffffffffffffffffffffffffffff168152602001908152602001600020600082825401925050819055508373ffffffffffffffffffffffffffffffffffffffff163073ffffffffffffffffffffffffffffffffffffffff167fddf252ad1be2c89b69c2b068fc378daa952ba7f163c4a11628f55a4df523b3ef836040518082815260200191505060405180910390a350505050565b600082600260003373ffffffffffffffffffffffffffffffffffffffff1673ffffffffffffffffffffffffffffffffffffffff16815260200190815260200160002060008673ffffffffffffffffffffffffffffffffffffffff1673ffffffffffffffffffffffffffffffffffffffff168152602001908152602001600020819055508373ffffffffffffffffffffffffffffffffffffffff163373ffffffffffffffffffffffffffffffffffffffff167f8c5be1e5ebec7d5bd14f71427d1e84f3dd0314c0f7b2291e5b200ac8c7c3b925856040518082815260200191505060405180910390a38373ffffffffffffffffffffffffffffffffffffffff1660405180807f72656365697665417070726f76616c28616464726573732c75696e743235362c81526020017f616464726573732c627974657329000000000000000000000000000000000000815250602e01905060405180910390207c01000000000000000000000000000000000000000000000000000000009004338530866040518563ffffffff167c0100000000000000000000000000000000000000000000000000000000028152600401808573ffffffffffffffffffffffffffffffffffffffff1673ffffffffffffffffffffffffffffffffffffffff1681526020018481526020018373ffffffffffffffffffffffffffffffffffffffff1673ffffffffffffffffffffffffffffffffffffffff168152602001828051906020019080838360005b838110156114c45780820151818401526020810190506114a9565b50505050905090810190601f1680156114f15780820380516001836020036101000a031916815260200191505b5094505050505060006040518083038160008761646e5a03f19250505015156000151514151561152057600080fd5b600190509392505050565b6000600260008473ffffffffffffffffffffffffffffffffffffffff1673ffffffffffffffffffffffffffffffffffffffff16815260200190815260200160002060008373ffffffffffffffffffffffffffffffffffffffff1673ffffffffffffffffffffffffffffffffffffffff16815260200190815260200160002054905092915050565b600c5481565b600360009054906101000a900473ffffffffffffffffffffffffffffffffffffffff1673ffffffffffffffffffffffffffffffffffffffff163373ffffffffffffffffffffffffffffffffffffffff1614151561161457600080fd5b6000600e60006101000a81548160ff021916908315150217905550565b600b5481565b600360009054906101000a900473ffffffffffffffffffffffffffffffffffffffff1673ffffffffffffffffffffffffffffffffffffffff163373ffffffffffffffffffffffffffffffffffffffff1614151561169357600080fd5b6001600e60006101000a81548160ff021916908315150217905550565b600d5481565b6000600160008373ffffffffffffffffffffffffffffffffffffffff1673ffffffffffffffffffffffffffffffffffffffff1681526020019081526020016000205490509190505600a165627a7a7230582016df2d78477e04fa1de258b930d1a23f3b6c04419112f902bbd07c1fdb4145a10029",
  "source": "pragma solidity ^0.4.18;\n\nimport \"./PrayerCoinToken.sol\";\nimport \"./SafeMath.sol\";\n\ncontract Standard {\n    function balanceOf(address _owner) public constant returns (uint256);\n    function transfer(address _to, uint256 _value) public returns (bool);\n}\n\ncontract PrayerCoin is PrayerCoinToken {\n  using SafeMath for uint256;\n  address public god;\n\n  string public name = \"PrayerCoin\";\n  uint8 public decimals = 18;\n  string public symbol = \"PRAY\";\n  string public version = 'H1.0';  \n\n  uint256 public publicSupply = 666666666;\n \n  uint public PRAY_ETH_RATIO = 6666;\n  uint public PRAY_ETH_RATIO_BONUS1 = 7106;\n  uint public PRAY_ETH_RATIO_BONUS2 = 11066;\n\n  uint256 public totalDonations = 0;\n  uint256 public totalPrayers = 0;\n\n  bool private acceptingDonations = true;\n  \n  modifier divine {\n    require(msg.sender == god);\n    _;\n  }\n\n  function PrayerCoin() public { // initialize contract\n    god = msg.sender;\n    balances[god] = publicSupply; // god holds all of the PRAY\n  } \n\n  function approveAndCall(address _spender, uint256 _value, bytes _extraData) public returns (bool success) {\n    allowed[msg.sender][_spender] = _value;\n    Approval(msg.sender, _spender, _value);\n\n    //call the receiveApproval function on the contract you want to be notified. This crafts the function signature manually so one doesn't have to include a contract in here just for this.\n    //receiveApproval(address _from, uint256 _value, address _tokenContract, bytes _extraData)\n    //it is assumed that when does this that the call *should* succeed, otherwise one would use vanilla approve instead.\n    require(false == _spender.call(bytes4(bytes32(keccak256(\"receiveApproval(address,uint256,address,bytes)\"))), msg.sender, _value, this, _extraData));\n    return true;\n  } \n\n  function startDonations() public divine {\n    acceptingDonations = true;\n  }\n\n  function endDonations() public divine {\n    acceptingDonations = false;\n  }\n\n  function fiatSend(address _to, uint256 amt, uint256 prayRatio) public divine {\n    totalDonations += amt;\n    uint256 prayersIssued = amt.mul(prayRatio);\n    totalPrayers += prayersIssued;\n    balances[_to] += prayersIssued;\n\n    Transfer(address(this), _to, prayersIssued);\n  }\n\n  function() public payable {\n    require(acceptingDonations == true);\n    if (msg.value == 0) { return; }\n\n    god.transfer(msg.value);\n\n    totalDonations += msg.value;\n    \n    uint256 prayersIssued = 0;\n\n    if (totalPrayers <= (6666666 * 1 ether)) {\n        if (totalPrayers <= (666666 * 1 ether)) {\n            prayersIssued = msg.value.mul(PRAY_ETH_RATIO_BONUS2);\n        } else {\n            prayersIssued = msg.value.mul(PRAY_ETH_RATIO_BONUS1);\n        }\n    } else {\n        prayersIssued = msg.value.mul(PRAY_ETH_RATIO);\n    }\n\n    totalPrayers += prayersIssued;\n    balances[msg.sender] += prayersIssued;\n\n    Transfer(address(this), msg.sender, prayersIssued);\n  }\n \n}\n",
  "sourcePath": "/Users/master/Projects/prayercoin/contracts/PrayerCoin.sol",
  "compiler": {
    "name": "solc",
    "version": "0.4.18+commit.9cf6e910.Emscripten.clang"
  },
  "schemaVersion": "1.0.1",
  "updatedAt": "2018-01-31T20:56:07.736Z"
}